:0400000007EF00F016
:0A000800518288ED14F08EEF17F01E
:1008000000C30809083D086B0834034D0069006304
:100810000072006F006300680069007000200054DF
:10082000006500630068006E006F006C006F006779
:10083000007900200049006E0063002E002E035353
:100840000069006D0070006C0065002000480049E0
:1008500000440020004400650076006900630065E4
:10086000002000440065006D006F000902290001AE
:100870000100C03209040000020300000009211138
:10088000010001221D000705810340000107050149
:10089000034000010600FF0901A1011901294015CB
:1008A0000026FF007508954081001901294091003C
:1008B000C01201000200000008D8043F000001013E
:1008C000020001040309040004012205D8A46BEF0F
:1008D00004F06DEF04F089EF04F020511F0B0009C4
:1008E000D8A475EF04F077EF04F089EF04F000016D
:1008F0006B8F030E04012119D8A481EF04F083EF5C
:1009000004F087EF04F0010E486E89EF04F0000E4A
:10091000486E2251D8A48FEF04F091EF04F011EF4C
:1009200006F020511F0B020AD8A499EF04F09BEFA8
:1009300004F011EF06F024510F0B0009D8B4A3EF17
:1009400004F0A5EF04F011EF06F024510F0B176E21
:10095000020E1760AEEF04F0B0EF04F011EF06F0F6
:10096000200E4B18D8A4B7EF04F0B9EF04F011EF44
:1009700006F000016B8F040124BFC1EF04F0C3EF48
:1009800004F0E0EF04F024510F0B176E1750020D26
:10099000720EF324D96E000EF420DA6EDECF1CF056
:1009A000DDCF1DF024510F0B176E186A7A0E172435
:1009B000D96E000E1820DA6EDF501B6EFBEF04F0CC
:1009C00024510F0B176E1750020D6E0EF324D96EC3
:1009D000000EF420DA6EDECF1CF0DDCF1DF02451C6
:1009E0000F0B176E186A7C0E1724D96E000E182094
:1009F000DA6EDF501B6E1BB000EF05F002EF05F062
:100A00000AEF05F0FB0E1C141C6EFF0E1D141D6E6C
:100A10000FEF05F0040E1C101C6E1D501D6E24BF40
:100A200014EF05F016EF05F027EF05F024510F0B3A
:100A3000176E1750020D720EF324D96E000EF420BB
:100A4000DA6E1CC0DEFF1DC0DDFF36EF05F024515D
:100A50000F0B176E1750020D6E0EF324D96E000E99
:100A6000F420DA6E1CC0DEFF1DC0DDFF030E21196D
:100A7000D8A43DEF05F03FEF05F079EF05F01CC07D
:100A8000D9FF1DC0DAFFDFAE48EF05F04AEF05F0F1
:100A90006BEF05F024BF4FEF05F051EF05F05FEF6E
:100AA00005F024510F0B176E186A7A0E1724D96EB1
:100AB000000E1820DA6E0001DF826BEF05F0245182
:100AC0000F0B176E186A7C0E1724D96E000E1820B3
:100AD000DA6E0001DF821CC0D9FF1DC0DAFF000EF4
:100AE000DB841CC0D9FF1DC0DAFF000EDB8E11EFC6
:100AF00006F0040E1C181C6E1D501D6E1CC0D9FF84
:100B00001DC0DAFFDFAE87EF05F089EF05F0A5EF36
:100B100005F01CC0D9FF1DC0DAFF7F0EDF161CC018
:100B2000D9FF1DC0DAFF000EDB8C000E106E050E23
:100B30000F6E1CC011F01DC012F0000E146E020EDC
:100B4000136E41EC13F0ABEF05F01CC0D9FF1DC0D4
:100B5000DAFF000EDB8C040E1C181C6E1D501D6E7F
:100B60001BB2B5EF05F0B7EF05F0C2EF05F01CC002
:100B7000D9FF1DC0DAFFDFAEC0EF05F0C2EF05F010
:100B8000FAEF05F0040124BFC8EF05F0CAEF05F045
:100B9000D8EF05F024510F0B176E186A7A0E172440
:100BA000D96E000E1820DA6E0001DF92E4EF05F036
:100BB00024510F0B176E186A7C0E1724D96E000E85
:100BC0001820DA6E0001DF921CC0D9FF1DC0DAFFC9
:100BD0003B0EDF16000E106E050E0F6E1CC011F0DE
:100BE0001DC012F0000E146E020E136E41EC13F0D5
:100BF00000EF06F01CC0D9FF1DC0DAFF3B0EDF1668
:100C0000040124510F0B176E186A700E1724196E09
:100C10000F0E18201A6E19C0D9FF1AC0DAFFFE0E87
:100C2000DF1612004B04D8A418EF06F01AEF06F0F6
:100C300027EF06F06DBA1FEF06F021EF06F027EF61
:100C400006F0000E686E69806988020E4B6E68A41B
:100C50002CEF06F02EEF06F038EF06F069A433EF24
:100C600006F035EF06F038EF06F06894F6EC16F073
:100C70006DA23DEF06F03FEF06F042EF06F0A19ABD
:100C800025EF07F068A047EF06F049EF06F056EFB2
:100C900006F069A04EEF06F050EF06F056EF06F0B2
:100CA0005FEC0DF0A08A040E4B6E689068A85BEFB5
:100CB00006F05DEF06F066EF06F069A862EF06F059
:100CC00064EF06F066EF06F078EC17F068AC6BEFB7
:100CD00006F06DEF06F098EF06F069AC72EF06F0E3
:100CE00074EF06F082EF06F0000E106E730E0F6EBA
:100CF000000E116E000E126E000E146E010E136EB9
:100D000041EC13F0689C2FEC17F04450D8B48BEFF3
:100D100006F08DEF06F08EEF06F044064450D8A49E
:100D200094EF06F096EF06F098EF06F048EC11F01D
:100D300068AA9DEF06F09FEF06F0A8EF06F069AAFB
:100D4000A4EF06F0A6EF06F0A8EF06F0B2EC15F05F
:100D500068A2ADEF06F0AFEF06F0C5EF06F069A2AE
:100D6000B4EF06F0B6EF06F0C5EF06F07F0E106E9A
:100D70000F68000E116E000E126E000E146E010E42
:100D8000136E41EC13F0000E6A6E040E4B60CBEF55
:100D900006F0CDEF06F0D0EF06F0A19A25EF07F0B0
:100DA00069A6D5EF06F0D7EF06F024EF07F0000EA6
:100DB000216E68A6DEEF06F0E0EF06F024EF07F004
:100DC0006CCF4EF04E30E832E8320F0B466E68962C
:100DD0004EB4EDEF06F0EFEF06F0F9EF06F07A0E05
:100DE0004624D96EDA6A000EDA220001DF7001EFC4
:100DF00007F07C0E4624D96EDA6A000EDA22000172
:100E0000DF704650D8A407EF07F009EF07F00DEFA9
:100E100007F033EC12F01BEF07F0000E106E720EAD
:100E20000F6E4E0E116E000E126E000E146E000E3E
:100E3000136E41EC13F0212A030E216422EF07F018
:100E400024EF07F0D9EF06F0A19A1200200E4B60B4
:100E50002CEF07F02EEF07F030EF07F0EFEF07F081
:100E60006DA235EF07F037EF07F039EF07F0EFEF3E
:100E700007F0000178517911D8B441EF07F043EF42
:100E800007F0C5EF07F078C0D9FF79C0DAFFDFBE01
:100E90004CEF07F04EEF07F0EFEF07F0C5EF07F06C
:100EA000020EEEEC14F0E0EF07F076517711D8B4B3
:100EB0005CEF07F05EEF07F069EF07F076C0D9FF4F
:100EC00077C0DAFFDFBE67EF07F069EF07F0E0EF0A
:100ED00007F0810E0501406F010E52EC14F000097D
:100EE000D8A475EF07F077EF07F07CEF07F0010E5D
:100EF0000501416F7FEF07F0000E0501416F010E04
:100F00002E6E400E2F6E050E306E400E316E010EAD
:100F1000DAEC0AF02EC076F02FC077F0E0EF07F0A1
:100F200076517711D8B497EF07F099EF07F0A4EF57
:100F300007F076C0D9FF77C0DAFFDFBEA2EF07F077
:100F4000A4EF07F0E0EF07F0000E19EC14F02EC04C
:100F500087F02FC088F0370E0501406F87C041F53C
:100F6000000188510501426F010E2E6E400E2F6E5A
:100F7000050E306E400E316E010EDAEC0AF02EC016
:100F800076F02FC077F0E0EF07F005010051000187
:100F9000856F866B8651000AD8B4D1EF07F0E0EF79
:100FA00007F08551370AD8B490EF07F0B70AD8B4E4
:100FB00050EF07F0010AD8B455EF07F0E0EF07F063
:100FC000000E2E6E000E2F6E050E306E400E316E2E
:100FD000010EDAEC0AF02EC078F02FC079F0120082
:100FE0007EC086F07FC087F0000182518311D8A4B3
:100FF000FCEF07F0FEEF07F000EF08F0ABEF08F0B2
:1010000086C0D9FF87C0DAFF80C0DFFF8251862506
:101010002E6E835187212F6EFF0E2E24D96EFF0E68
:101020002F20DA6E80C0DFFF835107E1030E825D5F
:10103000D8B01DEF08F01FEF08F021EF08F0ABEF7C
:1010400008F020EE01F08651D9268751DA2280C0BF
:10105000DFFF20EE02F08651D9268751DA2280C0C8
:10106000DFFF825186252E6E835187212F6EFE0E63
:101070002E24D96EFF0E2F20DA6E80C0DFFF825142
:1010800086252E6E835187212F6EFD0E2E24D96E5C
:10109000FF0E2F20DA6E80C0DFFF835107E1070EBD
:1010A000825DD8B056EF08F058EF08F05AEF08F01C
:1010B000ABEF08F020EE03F08651D9268751DA22F3
:1010C00080C0DFFF825186252E6E835187212F6ECF
:1010D000FC0E2E24D96EFF0E2F20DA6E80C0DFFFAB
:1010E000835107E1090E825DD8B079EF08F07BEFFC
:1010F00008F07DEF08F0ABEF08F086C02EF087C057
:101100002FF02E1E2F1E2E4A2F2A030E2E14846F10
:10111000856B84518627855187238451825F855151
:10112000835BFC0E8217FF0E8317A2EF08F086C0C8
:10113000D9FF87C0DAFF80C0DFFF8207D8A083070E
:10114000864B872B82518311D8A4A9EF08F0ABEF0F
:1011500008F097EF08F0120001C00BF002C00CF08D
:1011600005500610D8A4B7EF08F0B9EF08F0BBEFB0
:1011700008F066EF09F00BC0D9FF0CC0DAFF03C01E
:10118000DFFF05500B24076E06500C20086EFF0E83
:101190000724D96EFF0E0820DA6E03C0DFFF065069
:1011A00007E1030E055CD8B0D8EF08F0DAEF08F0DD
:1011B000DCEF08F066EF09F020EE01F00B50D926C5
:1011C0000C50DA2203C0DFFF20EE02F00B50D926CC
:1011D0000C50DA2203C0DFFF05500B24076E0650C7
:1011E0000C20086EFE0E0724D96EFF0E0820DA6E62
:1011F00003C0DFFF05500B24076E06500C20086E5D
:10120000FD0E0724D96EFF0E0820DA6E03C0DFFF43
:10121000065007E1070E055CD8B011EF09F013EF97
:1012200009F015EF09F066EF09F020EE03F00B501E
:10123000D9260C50DA2203C0DFFF05500B24076EBD
:1012400006500C20086EFC0E0724D96EFF0E0820F5
:10125000DA6E03C0DFFF065007E1090E055CD8B067
:1012600034EF09F036EF09F038EF09F066EF09F0D6
:101270000BC007F00CC008F0071E081E074A082A1A
:10128000030E0714096E0A6A09500B260A500C2235
:101290000950055E0A50065AFC0E0516FF0E06168A
:1012A0005DEF09F00BC0D9FF0CC0DAFF03C0DFFF10
:1012B0000506D8A006060B4A0C2A05500610D8A42D
:1012C00064EF09F066EF09F052EF09F01200800EAA
:1012D00004012019D8A46FEF09F071EF09F020EF95
:1012E0000AF0C00E00016B6F06EF0AF0B10E0001AC
:1012F000686F080E696F000E6D6F120E6C6F20EF35
:101300000AF02251D8A487EF09F089EF09F0CAEF5B
:1013100009F02251020D070EF324F66E080EF42098
:10132000F76E0900F5CF68F00A00F5CF69F0020EFC
:1013300000016825016E000E6921026E01C0F6FFF2
:1013400002C0F7FFF86A070EF76403D00800F550F3
:1013500005D0F6CFE9FFF7CFEAFFEF5000016C6F41
:10136000030E6825016E000E6921026E01C0F6FFB2
:1013700002C0F7FFF86A070EF76403D00800F550C3
:1013800005D0F6CFE9FFF7CFEAFFEF5000016D6F10
:1013900020EF0AF0000E00016B6F20EF0AF0030E41
:1013A0002261D5EF09F0D7EF09F0FCEF09F02251E7
:1013B000020D010EF324F66E080EF420F76E0900FC
:1013C000F5CF68F00A00F5CF69F068C0F6FF69C094
:1013D000F7FFF86A070EF76403D00800F55005D050
:1013E000F6CFE9FFF7CFEAFFEF50016E01500001A1
:1013F0006C6F6D6B20EF0AF0000E00016B6F20EF39
:101400000AF0000E00016B6F20EF0AF00401235177
:10141000016E026A0250000AD8B411EF0AF001EF1F
:101420000AF00150010AD8B476EF09F0030AD8B4E3
:1014300081EF09F0010AD8B4CFEF09F001EF0AF00B
:101440001200040120511F0BE806D8B42AEF0AF05D
:101450002CEF0AF02EEF0AF0D9EF0AF02451D8B49D
:1014600034EF0AF036EF0AF038EF0AF0D9EF0AF05D
:10147000060E2119D8A43FEF0AF041EF0AF07EEFE3
:101480000AF065EF0AF05004D8A449EF0AF04BEFD8
:101490000AF07EEF0AF07D0E0001686F080E696F9A
:1014A000000E6D6F090E6C6FC00E6B6F7EEF0AF051
:1014B000940E0001686F080E696F000E6D6F1D0EAF
:1014C0006C6FC00E6B6F7EEF0AF02351016E026AE3
:1014D0000250000AD8B46FEF0AF07EEF0AF0015014
:1014E000210AD8B443EF0AF0030AD8B458EF0AF03F
:1014F000010AD8B47EEF0AF07EEF0AF00401203929
:10150000E832030BE806D8B488EF0AF08AEF0AF055
:10151000B4EF0AF0D9EF0AF04D0E0001686F000E2B
:10152000696F000E6D6F010E6C6FC10E6B6FD9EF9E
:101530000AF0800E00016B6F23C44DF0D9EF0AF062
:101540004C0E0001686F000E696F000E6D6F010E8A
:101550006C6F810E6B6FD9EF0AF0800E00016B6F1C
:1015600022C44CF0D9EF0AF02151016E026A0250F8
:10157000000AD8B4BEEF0AF0D9EF0AF00150010A10
:10158000D8B4D9EF0AF0030AD8B48CEF0AF0010AF4
:10159000D8B4A0EF0AF00A0AD8B4D9EF0AF0030AC7
:1015A000D8B499EF0AF0010AD8B4ADEF0AF0D9EF38
:1015B0000AF012000001826F2E50D8B4E2EF0AF058
:1015C000E4EF0AF0F3EF0AF000018251020D6E0E13
:1015D000F324D96E000EF420DA6EDECF83F0DDCF77
:1015E00084F000EF0BF000018251020D720EF32423
:1015F000D96E000EF420DA6EDECF83F0DDCF84F0FA
:1016000083518411D8A407EF0BF009EF0BF00FEF13
:101610000BF0000E2E6E000E2F6E7BEF0BF020EE07
:1016200002F08351D9268451DA222FC0DEFF30C068
:10163000DDFF20EE01F08351D9268451DA2231C03A
:10164000DFFF83C0D9FF84C0DAFF400EDF1683C0FE
:10165000D9FF84C0DAFF000EDB8683C0D9FF84C0C7
:10166000DAFF000EDB8E2E50D8B439EF0BF03BEFD3
:101670000BF05AEF0BF08251020D6E0EF324D96E6F
:10168000000EF420DA6EDECF7EF0DDCF7FF0040EA8
:101690007E19806F7F51816F8251020D6E0EF3248F
:1016A000D96E000EF420DA6E80C0DEFF81C0DDFF4F
:1016B00077EF0BF08251020D720EF324D96E000EFB
:1016C000F420DA6EDECF7EF0DDCF7FF0040E7E19DF
:1016D000806F7F51816F8251020D720EF324D96E9B
:1016E000000EF420DA6E80C0DEFF81C0DDFF83C013
:1016F0002EF084C02FF0120020EE01F03C50D926CD
:101700003D50DA22DF50026E02500001645D000E8F
:101710006559D8B08EEF0BF090EF0BF092EF0BF015
:1017200064C002F00250645F000E655B000E016E43
:10173000A9EF0BF0280E0124D96EDA6A040EDA2222
:1017400060C0E1FF61C0E2FFDFCFE7FF604B612BCC
:10175000012A0250015CD8A0B0EF0BF0B2EF0BF001
:101760009AEF0BF064516511D8B4B9EF0BF0BBEFF1
:101770000BF0F4EF0BF020EE01F03A50D9263B507D
:10178000DA22080EDF6E20EE02F03A50D9263B50E6
:10179000DA22280EDE6E040EDD6E3CC0D9FF3DC09D
:1017A000DAFFDFBCD6EF0BF0D8EF0BF0E6EF0BF073
:1017B0003AC0D9FF3BC0DAFF480EDF6E3AC0D9FF0E
:1017C0003BC0DAFF000EDB8E1DEF0CF03AC0D9FFF4
:1017D0003BC0DAFF080EDF6E3AC0D9FF3BC0DAFF2C
:1017E000000EDB8E1DEF0CF020EE01F03A50D926F2
:1017F0003B50DA22080EDF6E20EE02F03A50D92676
:101800003B50DA22200EDE6E040EDD6E3AC0D9FFA8
:101810003BC0DAFF040EDF6E3AC0D9FF3BC0DAFFEF
:10182000000EDB8E639F4350D8A419EF0CF01BEF22
:101830000CF01DEF0CF048EC11F012006D98000157
:101840006BBF25EF0CF027EF0CF06CEF0CF063AFE3
:101850002CEF0CF02EEF0CF040EF0CF0020E496E66
:101860003F50D8A436EF0CF038EF0CF03AEF0CF004
:101870008FEC12F0000E416E000E426EBEEF0CF0C7
:1018800020EE01F03A50D9263B50DA22080EDF6EE6
:1018900020EE02F03A50D9263B50DA22200EDE6EBE
:1018A000040EDD6E3AC0D9FF3BC0DAFF0C0EDF6ECE
:1018B0003AC0D9FF3BC0DAFF000EDB8E6EC0D9FF05
:1018C0006FC0DAFF040EDF6E6EC0D9FF6FC0DAFFA3
:1018D000000EDB8EBEEF0CF0040120AF72EF0CF0B7
:1018E00074EF0CF090EF0CF0010E496E4050D8A44C
:1018F0007CEF0CF07EEF0CF080EF0CF08FEC12F030
:10190000000E416E000E426E4350D8A48AEF0CF0D8
:101910008CEF0CF0BEEF0CF048EC11F0BEEF0CF0C9
:10192000020E496E20EE01F03A50D9263B50DA22E1
:10193000080EDF6E20EE02F03A50D9263B50DA2234
:10194000200EDE6E040EDD6E3AC0D9FF3BC0DAFF1A
:10195000040EDF6E3AC0D9FF3BC0DAFF000EDB8E0B
:10196000000E416E000E426E4350D8A4BAEF0CF048
:10197000BCEF0CF0BEEF0CF08CEF0CF01200A09A54
:10198000000E6A6E000E686E000E706E710E000121
:101990007E6F0F0E7F6F000E816F000E806F000E46
:1019A000836F010E826FF0EC07F0160E6F6E9F0EC4
:1019B0006B6E7B0E696E000E306E3050040D000EA3
:1019C000F324D96E040EF420DA6EDE6ADE6ADE6A73
:1019D000DD6A302A070E3064F0EF0CF0F2EF0CF005
:1019E000DDEF0CF06D8C000E6E6E6D986D9C689640
:1019F000000E00016B6F000E636F000E656F000E2E
:101A0000646F68B606EF0DF008EF0DF0F7EF0CF01D
:101A1000010E426E010E416E000E406E000E3F6ED2
:101A2000000E476E000E306E3050020D6E0EF32425
:101A3000D96E000EF420DA6EDE6ADD6A3050020DD7
:101A4000720EF324D96E000EF420DA6EDE6ADD6ABF
:101A50007C0E3024D96EDA6A000EDA22DF6A7A0E42
:101A60003024D96EDA6A000EDA22DF6A302A010EDB
:101A700030643DEF0DF03FEF0DF014EF0DF0080E68
:101A800000016E6F040E6F6F160E706E040E04016F
:101A9000036F200E026F080E016F040E006F008F9F
:101AA000000E506E000E326E000E336E000E346E5D
:101AB000000E356E000E3E6E000E4B6E1200A09AA8
:101AC000000E6A6E000E686E000E706E710E016E72
:101AD0000F0E026E000E046E000E036E000E066EF8
:101AE000010E056EACEC08F0160E6F6E9F0E6B6E5D
:101AF0007B0E696E000E0D6E0D50040D000EF3246A
:101B0000D96E040EF420DA6EDE6ADE6ADE6ADD6A01
:101B10000D2A070E0D648FEF0DF091EF0DF07CEFA5
:101B20000DF06D8C000E6E6E6D986D9C6896000EBB
:101B300000016B6F000E636F000E656F000E646F27
:101B400068B6A5EF0DF0A7EF0DF096EF0DF0010EC2
:101B5000426E010E416E000E406E000E3F6E000E92
:101B6000476E000E0D6E0D50020D6E0EF324D96EF1
:101B7000000EF420DA6EDE6ADD6A0D50020D720E80
:101B8000F324D96E000EF420DA6EDE6ADD6A7C0E74
:101B90000D24D96EDA6A000EDA22DF6A7A0E0D247D
:101BA000D96EDA6A000EDA22DF6A0D2A010E0D64A0
:101BB000DCEF0DF0DEEF0DF0B3EF0DF0080E0001DD
:101BC0006E6F040E6F6F160E706E040E0401036FBD
:101BD000200E026F080E016F040E006F008F000EC2
:101BE000506E000E326E000E336E000E346E000E1C
:101BF000356E000E3E6E000E4B6E1200096E0150E7
:101C0000D8B405EF0EF007EF0EF015EF0EF0095007
:101C1000020D6E0EF324D96E000EF420DA6EDECFC4
:101C20000AF0DDCF0BF021EF0EF00950020D720E1D
:101C3000F324D96E000EF420DA6EDECF0AF0DDCF89
:101C40000BF00A500B10D8A428EF0EF02AEF0EF07C
:101C500030EF0EF0000E016E000E026E9CEF0EF0E3
:101C600020EE02F00A50D9260B50DA2202C0DEFF25
:101C700003C0DDFF20EE01F00A50D9260B50DA2216
:101C800004C0DFFF0AC0D9FF0BC0DAFF400EDF1629
:101C90000AC0D9FF0BC0DAFF000EDB860AC0D9FFED
:101CA0000BC0DAFF000EDB8E0150D8B45AEF0EF0F5
:101CB0005CEF0EF07BEF0EF00950020D6E0EF32478
:101CC000D96E000EF420DA6EDECF05F0DDCF06F01F
:101CD000040E0518076E0650086E0950020D6E0EB0
:101CE000F324D96E000EF420DA6E07C0DEFF08C0C0
:101CF000DDFF98EF0EF00950020D720EF324D96E3D
:101D0000000EF420DA6EDECF05F0DDCF06F0040E13
:101D10000518076E0650086E0950020D720EF32466
:101D2000D96E000EF420DA6E07C0DEFF08C0DDFFBA
:101D30000AC001F00BC002F0120004012039E832A1
:101D4000030B0009D8B4A7EF0EF0A9EF0EF0F6EFE1
:101D50000EF02FEF0FF000016B8F080E4B6E2FEF80
:101D60000FF067EC09F02FEF0FF0C0EC11F02FEF40
:101D70000FF0500E0001686F000E696F6B81010E4D
:101D80006C6F6B8F2FEF0FF030EC0FF02FEF0FF029
:101D900064EC04F02FEF0FF04F0E24250001686F64
:101DA000696B000E69236B81010E6C6F6B8F2FEFD7
:101DB0000FF000016B8F4F0E04012425D96EDA6AF3
:101DC000000EDA2222C4DFFF2FEF0FF0000E106E9C
:101DD000020E0F6E000E116E000E126E000E146ECB
:101DE000000E136E41EC13F02FEF0FF021511E6E19
:101DF0001F6A1F50000AD8B400EF0FF02FEF0FF04A
:101E00001E50000AD8B4C4EF0EF0010AD8B4C8EFCF
:101E10000EF0020AD8B4C8EF0EF0060AD8B4ABEF41
:101E20000EF0030AD8B4B1EF0EF0010AD8B4E6EF11
:101E30000EF00F0AD8B4B9EF0EF0010AD8B4B5EF1E
:101E40000EF0030AD8B4CCEF0EF0010AD8B4D9EFE3
:101E50000EF0070AD8B42FEF0FF02FEF0FF012009B
:101E6000000E0401286F000E296F97EF0FF000019C
:101E70006B8F4804D8A43FEF0FF041EF0FF0B1EFA4
:101E80000FF004012883B1EF0FF000016B8FB1EF69
:101E90000FF000016B8F040124510F0B0009D8B41F
:101EA00054EF0FF056EF0FF0B1EF0FF024BF5BEFE0
:101EB0000FF05DEF0FF06EEF0FF024510F0B016E7E
:101EC0000150020D720EF324D96E000EF420DA6E6A
:101ED000DECF03F0DDCF04F07DEF0FF024510F0BC8
:101EE000016E0150020D6E0EF324D96E000EF42027
:101EF000DA6EDECF03F0DDCF04F003C0D9FF04C0FB
:101F0000DAFFDFAE86EF0FF088EF0FF0B1EF0FF0E2
:101F100003C0D9FF04C0DAFFDFA491EF0FF093EF05
:101F20000FF0B1EF0FF0010E286FB1EF0FF020515D
:101F30001F0B016E026A0250000AD8B4A2EF0FF024
:101F4000B1EF0FF00150000AD8B437EF0FF0010ADB
:101F5000D8B445EF0FF0030AD8B449EF0FF0B1EF52
:101F60000FF000016BAFB7EF0FF0B9EF0FF0C0EF5C
:101F70000FF0280E686F040E696F6B81020E6C6F94
:101F80001200080E016E00016D5107E1080E6C5D34
:101F9000D8B0CDEF0FF0CFEF0FF0E7EF0FF06CC040
:101FA00001F04A50D8A4D7EF0FF0D9EF0FF0DDEFD2
:101FB0000FF0010E4A6EE7EF0FF04A04D8A4E3EFEA
:101FC0000FF0E5EF0FF0E7EF0FF0020E4A6E015051
:101FD0006C5F000E6D5B20EE01F06E51D9266F51E3
:101FE000DA2201C0DFFF280E386E040E396E6BB1A5
:101FF000FCEF0FF0FEEF0FF040EF10F01BEF10F0D2
:1020000068C0F6FF69C0F7FFF86A38C0D9FF39C069
:10201000DAFF070EF76403D00800F55005D0F6CFBD
:10202000E9FFF7CFEAFFEF50DF6E0001684B692B45
:10203000384A392A01060150D8A421EF10F023EFC5
:1020400010F000EF10F048EF10F068C0F6FF69C024
:10205000F7FFF86A38C0D9FF39C0DAFF070EF76416
:1020600003D00800F55005D0F6CFE9FFF7CFEAFF1F
:10207000EF50DF6E0001684B692B384A392A0106A0
:102080000150D8A446EF10F048EF10F025EF10F003
:1020900012006EC0D9FF6FC0DAFF0001000EDFBC76
:1020A000010E026E040E6E196E6F6F516F6F080E87
:1020B0004B18D8A45EEF10F060EF10F072EF10F044
:1020C000040122517F0B6E6E6E50D8B46AEF10F08F
:1020D0006CEF10F070EF10F0100E4B6E72EF10F00E
:1020E000040E4B6E4904D8A478EF10F07AEF10F08C
:1020F000C2EF10F0000120EE02F06E51D9266F51B0
:10210000DA22280EDE6E040EDD6EC1EC0FF0020E38
:102110004A18D8A48EEF10F090EF10F09EEF10F058
:102120006EC0D9FF6FC0DAFF040EDF6E6EC0D9FF3C
:102130006FC0DAFF000EDB8ECDEF10F00250D8A496
:10214000A4EF10F0A6EF10F0B4EF10F06EC0D9FFBE
:102150006FC0DAFF480EDF6E6EC0D9FF6FC0DAFFC6
:10216000000EDB8ECDEF10F06EC0D9FF6FC0DAFF2E
:10217000080EDF6E6EC0D9FF6FC0DAFF000EDB8E77
:10218000CDEF10F0000163AFC8EF10F0CAEF10F010
:10219000CBEF10F0639F000E496E12006DA2D3EFDB
:1021A00010F0D5EF10F034EF11F0010E81EC15F0C6
:1021B00047EF11F036043710D8A4E1EF10F0E3EF49
:1021C00010F0E8EF10F0010E50EC15F045EF11F0B3
:1021D0004B0E36183710D8A4F0EF10F0F2EF10F0D5
:1021E000F7EF10F0010E81EC15F045EF11F03750CC
:1021F00009E1970E365CD8A000EF11F002EF11F064
:1022000008EF11F0000E376E000E366E45EF11F03C
:1022100045EF11F036043710D8A411EF11F013EF89
:1022200011F018EF11F0010E50EC15F045EF11F020
:10223000320E36183710D8A420EF11F022EF11F02B
:1022400027EF11F0010E81EC15F045EF11F0B70EFC
:10225000365C030E3758D8A030EF11F032EF11F092
:1022600045EF11F002EF11F04B50046E056A055076
:10227000000AD8B43EEF11F00AEF11F00450200A22
:10228000D8B4DAEF10F00AEF11F0364A372A12000C
:102290004250D8A44EEF11F050EF11F0BFEF11F003
:1022A000010E426E4150D8A458EF11F05AEF11F0D0
:1022B000BFEF11F0010E416E020E4918D8A463EF72
:1022C00011F065EF11F07BEF11F0000120EE01F04D
:1022D0006E51D9266F51DA22DF6A6EC0D9FF6FC006
:1022E000DAFF480EDF6E6EC0D9FF6FC0DAFF000E56
:1022F000DB8EBFEF11F04904D8A481EF11F083EF1A
:1023000011F0BFEF11F0000E456E20EE01F03C50D1
:10231000D9263D50DA22080EDF6E20EE02F03C5046
:10232000D9263D50DA22200EDE6E040EDD6E3CC052
:10233000D9FF3DC0DAFF040EDF6E3CC0D9FF3DC0BF
:10234000DAFF000EDB8E010E456E20EE01F03A50F2
:10235000D9263B50DA22080EDF6E20EE02F03A500A
:10236000D9263B50DA22200EDE6E040EDD6E3AC016
:10237000D9FF3BC0DAFF800EDF6EBFEF11F0120015
:1023800000016B8F710E016E0F0E026E000E046E57
:10239000000E036E000E066E010E056EACEC08F02A
:1023A000000E016E040E026E000E046E000E036E2F
:1023B000000E066E200E056EACEC08F06D8C000E63
:1023C000176E7C0E1724D96EDA6A000EDA22DF6AE5
:1023D0007A0E1724D96EDA6A000EDA22DF6A172A1B
:1023E000010E1764F6EF11F0F8EF11F0E1EF11F0C4
:1023F0004F0E016E000E026E000E046E000E036E94
:10240000000E066E010E056EACEC08F06D9C080E19
:1024100000016E6F040E6F6F000E3C6E040E3D6E79
:102420003CC03AF03DC03BF022C450F05050D8A41C
:102430001CEF12F01EEF12F022EF12F0100E4B6E96
:1024400032EF12F0000E106E010E0F6E500E116E74
:10245000000E126E000E146E010E136E41EC13F09E
:10246000200E4B6E12002D0E446E4EC020F0FD0E5D
:102470002016D8A43EEF12F040EF12F082EF12F0D7
:102480004EC020F0D89020323F0E20162050040D70
:10249000000EF3243C6E040EF4203D6E3CC03AF076
:1024A0003DC03BF0040E3A183A6E3B503B6E3CC0C8
:1024B000D9FF3DC0DAFFDF30E8320F0B0D0AD8A498
:1024C00064EF12F066EF12F07EEF12F0200E016E54
:1024D000040E026E20EE02F03C50D9263D50DA2266
:1024E000DECF03F0DDCF04F0000E066E080E056EA1
:1024F0003FEC16F097EC13F08EEF12F0DFEC13F0D8
:102500008EEF12F04E50FD0B040AD8A48AEF12F0A1
:102510008CEF12F08EEF12F049EC10F01200000E6A
:10252000406E000E3F6E020E4918D8A49AEF12F0CA
:102530009CEF12F0BCEF12F020EE01F03A50D926D9
:102540003B50DA22080EDF6E20EE02F03A50D92618
:102550003B50DA22280EDE6E040EDD6E3AC0D9FF43
:102560003BC0DAFF480EDF6E3AC0D9FF3BC0DAFF4E
:10257000000EDB8EE8EF12F000016C510401265DC5
:1025800000016D5104012759D8B0C9EF12F0CBEF0B
:1025900012F0CFEF12F026C46CF027C46DF0C1EC3E
:1025A0000FF0000120EE02F06E51D9266F51DA22B1
:1025B000280EDE6E040EDD6E6EC0D9FF6FC0DAFF2E
:1025C000480EDF6E6EC0D9FF6FC0DAFF000EDB8EE3
:1025D0001200086E000E096E040E0A6E0150026EA3
:1025E000036AD890023603360850046E056AD89004
:1025F00004360536D8900436053602500424066E9B
:1026000003500520076ED89006360736D890063658
:1026100007360650092607500A2209C0D9FF0AC00A
:10262000DAFFDF9E0150D8A418EF13F01AEF13F071
:1026300028EF13F00850020D720EF324D96E000E2D
:10264000F420DA6E09C0DEFF0AC0DDFF34EF13F0BC
:102650000850020D6E0EF324D96E000EF420DA6ECF
:1026600009C0DEFF0AC0DDFF09C0D9FF0AC0DAFFDA
:10267000DF9C20EE04F00950D9260A50DA22DF8CC4
:1026800012005DEF13F0CEEC10F096EF13F0CEECED
:1026900010F0010E11EC16F096EF13F0CEEC10F0E6
:1026A000020E11EC16F096EF13F015EC17F096EF02
:1026B00013F021EC0AF096EF13F00FC015F010C0E4
:1026C00016F01650000AD8B46CEF13F07F0AD8B495
:1026D0008FEF13F096EF13F01550010AD8B455EFB1
:1026E00013F0030AD8B496EF13F0010AD8B459EFE7
:1026F00013F0060AD8B496EF13F0770AD8B496EF21
:1027000013F0010AD8B443EF13F0070AD8B44EEF20
:1027100013F0010AD8B447EF13F096EF13F01550F9
:10272000FF0AD8B496EF13F096EF13F01200000EE4
:102730004A6E000E436E000E406E000E3F6E000E9D
:10274000456E000E496E6EC0D9FF6FC0DAFF7F0E76
:10275000DF16040E00016E196E6F6F516F6F6EC041
:10276000D9FF6FC0DAFF7F0EDF16040E6E196E6F91
:102770006F516F6F3AC0D9FF3BC0DAFF7F0EDF1693
:10278000000E6B6F000E6D6F000E6C6F000E636FAE
:10279000000E656F000E646F9DEC0EF0000E106E63
:1027A000030E0F6E000E116E000E126E000E146EF0
:1027B000000E136E41EC13F01EEC0CF01200020E32
:1027C0004918D8A4E6EF13F0E8EF13F0ECEF13F09C
:1027D0007CEC0BF018EF14F0000E496E4550D8A4B5
:1027E000F4EF13F0F6EF13F016EF14F020EE01F013
:1027F0003A50D9263B50DA22080EDF6E20EE02F066
:102800003A50D9263B50DA22200EDE6E040EDD6EE1
:102810003AC0D9FF3BC0DAFF0C0EDF6E3AC0D9FFD9
:102820003BC0DAFF000EDB8E18EF14F0000E456E91
:1028300012000001806F21EF14F02E682F6851EF15
:1028400014F000018051306E316A3150000AD8B462
:102850002CEF14F01DEF14F03050000AD8B433EF11
:1028600014F01DEF14F080C030F030463046C250F6
:102870003018C30B3018C26EC282C2B242EF14F0DD
:1028800044EF14F03DEF14F0C4CF7EF000017F6BF5
:102890007E517F6F7E6BC3507E137EC02EF07FC053
:1028A0002FF01200306E6EEF14F081A85AEF14F082
:1028B0005DEF14F0010E5EEF14F0000E87EF14F0E0
:1028C00081AA65EF14F068EF14F0010E69EF14F0BF
:1028D000000E87EF14F0000E87EF14F030502E6ECC
:1028E0002F6A2F50000AD8B478EF14F06BEF14F071
:1028F0002E50000AD8B46BEF14F0010AD8B455EF8B
:1029000014F0030AD8B460EF14F06BEF14F0120067
:102910000600E9CF22F0EACF23F0E1CF24F0E2CFA6
:1029200025F0D9CF26F0DACF27F0F3CF28F0F4CF77
:1029300029F0F6CF2AF0F7CF2BF0F8CF2CF0F5CF17
:102940002DF012EC06F02DC0F5FF2CC0F8FF2BC0C7
:10295000F7FF2AC0F6FF29C0F4FF28C0F3FF27C005
:10296000DAFF26C0D9FF25C0E2FF24C0E1FF23C063
:10297000EAFF22C0E9FF51921100306ECCEF14F053
:102980009590EDEF14F09592EDEF14F09594EDEF36
:1029900014F09596EDEF14F030502E6E2F6A2F50F4
:1029A000000AD8B4D6EF14F0EDEF14F02E50000A60
:1029B000D8B4EDEF14F0010AD8B4C0EF14F0030A54
:1029C000D8B4C3EF14F0010AD8B4C6EF14F0070A64
:1029D000D8B4C9EF14F0EDEF14F01200306EFDEF33
:1029E00014F08C701EEF15F08C721EEF15F08C74C5
:1029F0001EEF15F08C761EEF15F030502E6E2F6AFC
:102A00002F50000AD8B407EF15F01EEF15F02E5026
:102A1000000AD8B41EEF15F0010AD8B4F1EF14F093
:102A2000030AD8B4F4EF14F0010AD8B4F7EF14F0A5
:102A3000070AD8B4FAEF14F01EEF15F01200036E77
:102A40002EEF15F095904FEF15F095924FEF15F092
:102A500095944FEF15F095964FEF15F00350016EDA
:102A6000026A0250000AD8B438EF15F04FEF15F0A3
:102A70000150000AD8B44FEF15F0010AD8B422EF84
:102A800015F0030AD8B425EF15F0010AD8B428EFE1
:102A900015F0070AD8B42BEF15F04FEF15F0120020
:102AA000036E5FEF15F08C8080EF15F08C8280EF65
:102AB00015F08C8480EF15F08C8680EF15F00350B4
:102AC000016E026A0250000AD8B469EF15F080EF77
:102AD00015F00150000AD8B480EF15F0010AD8B4FF
:102AE00053EF15F0030AD8B456EF15F0010AD8B425
:102AF00059EF15F0070AD8B45CEF15F080EF15F028
:102B00001200036E90EF15F08C90B1EF15F08C92DF
:102B1000B1EF15F08C94B1EF15F08C96B1EF15F084
:102B20000350016E026A0250000AD8B49AEF15F001
:102B3000B1EF15F00150000AD8B4B1EF15F0010A59
:102B4000D8B484EF15F0030AD8B487EF15F0010A62
:102B5000D8B48AEF15F0070AD8B48DEF15F0B1EFAD
:102B600015F0120070A0B7EF15F0B9EF15F0E0EF17
:102B700015F03CC0D9FF3DC0DAFF800EDE18D8A4A6
:102B8000C4EF15F0C6EF15F0DFEF15F06EC0D9FFFA
:102B90006FC0DAFF840EDE18D8A4D1EF15F0D3EFA2
:102BA00015F0DFEF15F03CC0D9FF3DC0DAFF0C0E89
:102BB000DF6E3CC0D9FF3DC0DAFF000EDB8E7090A7
:102BC000689A1200316EF6EF15F0010EBDEC14F0AC
:102BD000020EBDEC14F0010EB0EC16F0000EA1ECEC
:102BE00017F0000E48EC17F010EF16F0315000010E
:102BF0007E6F7F6B7F51000AD8B401EF16F010EFA3
:102C000016F07E51000AD8B4E5EF15F0010AD8B4E9
:102C100010EF16F0030AD8B410EF16F010EF16F00C
:102C20001200066E25EF16F0010E1FEC15F0020ED5
:102C30001FEC15F0010ED3EC16F0000EB4EC17F0FB
:102C4000000E60EC17F03EEF16F00650046E056AB9
:102C50000550000AD8B42FEF16F03EEF16F00450DE
:102C6000000AD8B414EF16F0010AD8B43EEF16F0FB
:102C7000030AD8B43EEF16F03EEF16F0120003C080
:102C800009F004C00AF001C007F002C008F059EFD3
:102C900016F009C0D9FF0AC0DAFFDF500B6E094AEF
:102CA0000A2A07C0D9FF08C0DAFF0BC0DFFF074AB6
:102CB000082A0506D8A00606052806E10628D8A495
:102CC00064EF16F066EF16F049EF16F012000E6E84
:102CD0000BA46DEF16F06FEF16F074EF16F0000E08
:102CE000016E0E50E9EC12F00BA279EF16F07BEFBB
:102CF00016F080EF16F0010E016E0E50E9EC12F0A6
:102D0000700E0E240C6E0D6A0F0E0D220CC0D9FF32
:102D10000DC0DAFF0BC0DFFF12004B50D8A493EFB9
:102D200016F095EF16F0AFEF16F0000E6D6E000E78
:102D3000696E160E6F6E9F0E6B6E7B0E696ED08E77
:102D4000A28AA08AF28EA6EF16F06D866DA6ABEF72
:102D500016F0ADEF16F0A5EF16F0010E4B6E120057
:102D6000306EB9EF16F09388D2EF16F0938AD2EF57
:102D700016F030502E6E2F6A2F50000AD8B4C3EFD1
:102D800016F0D2EF16F02E50000AD8B4D2EF16F09B
:102D9000010AD8B4B3EF16F0030AD8B4B6EF16F0B0
:102DA000D2EF16F01200036EDCEF16F09388F5EF09
:102DB00016F0938AF5EF16F00350016E026A025086
:102DC000000AD8B4E6EF16F0F5EF16F00150000A4D
:102DD000D8B4F5EF16F0010AD8B4D6EF16F0030A0E
:102DE000D8B4D9EF16F0F5EF16F01200000E476ECA
:102DF000000E106E740E0F6E000E116E000E126E2D
:102E0000000E146E000E136E41EC13F06D92699477
:102E10000BEF17F0689468B410EF17F012EF17F08B
:102E20000AEF17F0000E3E6E1200000E0001766FE2
:102E3000000E776F1E0E0B6E010E67EC16F0000E83
:102E4000016E000E026E050E036E400E046E010E42
:102E5000FEEC0DF001C078F002C079F01200010E16
:102E60003226000E3322342235224750D8A43BEFBD
:102E700017F03DEF17F047EF17F03E2A3E50D8A469
:102E800044EF17F046EF17F047EF17F03E681200D7
:102E9000306E4EEF17F092805FEF17F030502E6ECD
:102EA0002F6A2F50000AD8B458EF17F05FEF17F0D1
:102EB0002E50000AD8B44BEF17F05FEF17F0120056
:102EC000036E66EF17F0928077EF17F00350016EF4
:102ED000026A0250000AD8B470EF17F077EF17F0CB
:102EE0000150000AD8B463EF17F077EF17F0120023
:102EF000698468986D82010E476E000E3E6E000E6A
:102F0000106E750E0F6E000E116E000E126E000E1A
:102F1000146E000E136E41EC13F0120000EE60F020
:102F20001E0EEE6AE806FDE100EE32F01F0EEE6ABC
:102F3000E806FDE151905192000EF86E0001C7EFD6
:102F400017F02E6E2E50D8A4A8EF17F0AAEF17F0A6
:102F5000B3EF17F0010EC26EC150F00B0E09C16E37
:102F60003C0EC06EC08E1200016E0150D8A4BBEFA3
:102F700017F0BDEF17F0C6EF17F0010EC26EC1508B
:102F8000F00B0E09C16E3C0EC06EC08E1200000E1A
:102F9000E2EC15F0BFEC0CF08DEC16F026EC07F02F
:082FA000CEEF17F007EF00F07F
:020000040020DA
:08000000FFFFFFFFFFFFFFFF00
:020000040030CA
:0E000000240E3F1EFF8181FF0FC00FE00F4056
:00000001FF
